:020000040800F2
:10000000105A00207D0200088B0200088D020008B3
:100010008F0200089102000893020008000000000F
:100020000000000000000000000000009502000831
:1000300097020008000000004D0200088D03000830
:100040009D0200089D0200089D0200089D02000814
:100050009D0200089D0200089D0200089D02000804
:100060009D0200089D0200089D0200089D020008F4
:100070009D0200089D0200089D0200089D020008E4
:100080009D0200089D0200089D0200089D020008D4
:100090009D0200089D0200089D0200089D020008C4
:1000A0009D0200089D0200089D0200089D020008B4
:1000B0009D0200089D0200089D0200089D020008A4
:1000C0009D0200089D0200089D0200089D02000894
:1000D0009D0200089D0200089D0200089D02000884
:1000E0009D0200089D0200089D0200089D02000874
:1000F0009D0200089D0200089D0200089D02000864
:100100009D0200089D0200089D0200089D02000853
:100110009D0200089D0200089D0200089D02000843
:100120009D0200089D0200089D0200089D02000833
:100130009D0200089D0200089D0200089D02000823
:100140009D0200089D0200089D0200089D02000813
:100150009D0200089D0200089D0200089D02000803
:100160009D0200089D0200089D0200089D020008F3
:100170009D0200089D0200089D020008000000008A
:100180009D0200089D0200089D0200089D020008D3
:100190009D0200089D0200089D0200089D020008C3
:1001A0009D0200089D0200089D02000800F002F870
:1001B00000F03CF80AA090E8000C82448344AAF1C5
:1001C0000107DA4501D100F031F8AFF2090EBAE8C3
:1001D0000F0013F0010F18BFFB1A43F0010318477B
:1001E000D0170000F0170000103A24BF78C878C17B
:1001F000FAD8520724BF30C830C144BF04680C602D
:10020000704700000023002400250026103A28BF74
:1002100078C1FBD8520728BF30C148BF0B60704778
:100220001FB501F03BFB1FBD10B510BD00F074F809
:100230001146FFF7F5FF00F05BF900F092F803B408
:10024000FFF7F2FF03BC00F099F80000EFF309801C
:1002500020B120E9F00F0749096808600548064900
:100260000A6802601068B0E8F00F80F309886FF048
:10027000120E70470C000020100000200B4801688F
:1002800041F4700101600A480047FEE7FEE7FEE71F
:10029000FEE7FEE7FEE7FEE7FEE7FEE7FEE700001B
:1002A00004480549054A064B7047000088ED00E008
:1002B000AD01000810540020105A002010560020F4
:1002C000105600204FF0000200B5134694469646A3
:1002D000203922BFA0E80C50A0E80C50B1F1200159
:1002E000BFF4F7AF090728BFA0E80C5048BF0CC007
:1002F0005DF804EB890028BF40F8042B08BF704765
:1003000048BF20F8022B11F0804F18BF00F8012BD6
:100310007047704770477047754600F02BF8AE463F
:1003200005006946534620F00700854618B020B501
:10033000FFF7B6FFBDE820404FF000064FF0000782
:100340004FF000084FF0000B21F00701AC46ACE87D
:10035000C009ACE8C009ACE8C009ACE8C0098D46EA
:10036000704710B50446AFF300802046BDE810404A
:10037000FFF765BF00487047B053002001491820BF
:10038000ABBEFEE7260002007047000010B5034830
:100390000078012801D100F051FD10BD14000020AB
:1003A00010B52DED0A8B2A48006840B90120284974
:1003B00008602849086000202749086044E0264872
:1003C000006864280FD12348006801280BD1234816
:1003D0000068234908600020204908601D49086022
:1003E00000F0B2FC30E01C4800686421B0FBF1F280
:1003F00001FB120040BB1A48006801F047F841ECCD
:100400001A0B1648006801F041F841EC1C0B9FEDF7
:10041000150B53EC102B01F04DF841EC1B0B53EC7A
:100420001A2B00F0DBFE41EC190B9FED0E0B53EC89
:10043000102B01F03DF941EC180B00F0F5FD0B49D4
:100440000860002005490860BDEC0A8B10BD000063
:10045000280000202C000020180000201C00002094
:10046000200000200000000000005940240000206F
:1004700000200749086007490860074908600749E4
:1004800008609FED070A074880ED000A70470000EA
:100490001C00002020000020280000202C0000204C
:1004A000000000002400002000BF0248006800286F
:1004B000FBD070472800002000F032FC00F0A0FDC7
:1004C00000F050F90A2000F06DFAFFF7EDFF00BFD1
:1004D00000F020FD044605480068401C0349086000
:1004E000204600F00FFB00F039F9F1E71C00002076
:1004F00010B500F0B9F9002010BD000000BF0020C9
:1005000005490860642000F003FB012002490860EF
:10051000642000F0FDFAF2E70000002000BF002098
:1005200005490860012000F0F3FA01200249086043
:1005300000F0EEFAF3E700000400002000BF002006
:1005400005490860012000F0E3FA01200249086033
:1005500000F0DEFAF3E700000800002001238B40E2
:1005600002689A430260704700B50146087818B1E6
:100570000878134A105C00BD088800F47F4030B151
:100580000888C0F307200E4A105C0830F3E70868BB
:1005900000F47F0030B10868C0F30740084A105CDF
:1005A0001030E8E7086800F07F4028B10868000EC6
:1005B000034A105C1830DEE700F007F8DBE70000C4
:1005C000B018000800210160704720207047012307
:1005D0008B4002681A430260704770B504460D46AE
:1005E0002560201D00F00BF970BD2DE9F041044697
:1005F0000D46164600F08EFC0746E16B081D04F11F
:10060000200100F00BF90020E06325646664606956
:1006100020F47F006061207D00F0040010B12046CE
:1006200000F0EAF9384600F06DFABDE8F0812DE9F6
:10063000FC5F05460C4617469846DDF830900020D2
:100640000190207D00F0080000284DD1207D00F0B1
:100650000200002848D1606900F47F00002843D1DF
:1006600000F058FC0090207D00F0040010B12046FE
:1006700000F0C2F9207D00F0010010B1204600F02A
:10068000AFFBAE6812E0A6F1200BD6F804A0207BE9
:100690009BF80C10884208DA04F120023146281D2C
:1006A00000F0B2F80120019003E05646281D864272
:1006B000E9D100BF019820B904F12001281D00F004
:1006C00089F8606940EA08006061E56327640020FA
:1006D0006064B9F1000F03D04946204600F0A6F946
:1006E000009800F00FFA00BFBDE8FC9F70B504460B
:1006F000002500F00FFC0646201D00F077F80546A7
:10070000304600F0FFF9284670BD2DE9F047054658
:100710000E461746002400F0FDFB8146281D00F020
:100720008CF8B0F1000813D0A8F120040020E06399
:1007300026646764606920F47F006061207D00F0BA
:10074000040010B1204600F057F9204600F02EFBBF
:10075000484600F0D7F92046BDE8F087704770475B
:10076000704770471CB54FF48050114900234FF07B
:100770001132CDE900100F490F4800F0F9F94FF49C
:1007800080500E4901234FF02232CDE900100C4970
:100790000C4800F0EDF94FF480500B4901234FF065
:1007A0003332CDE900100949094800F0E1F91CBDD8
:1007B00034010020FD04000838000020341100201E
:1007C0001D0500088C000020342100203D05000894
:1007D000E000002002680A60026852684A6002680D
:1007E000516001608268521C8260704701468868CF
:1007F0007047014600208A6802B14868704740602F
:1008000000600021816070470B68136051600B68C5
:100810005A600A6083685B1C8360704700B50246BB
:10082000D1E900305860D1E900031860084600F0B3
:1008300017F89068401E906000BD00B50146002288
:10084000886858B14A68D2E9000318605068486067
:100850008868401E8860104600F002F8104600BD0F
:1008600040600060704700001CB5402080F3148891
:1008700000BF00F081FA00F05FF900F07FFB00F0AC
:100880004FFBFFF7F5FD4FF480500E491F23002268
:10089000CDE900100C490D4800F06AF900F054F958
:1008A0000B490860002080F3098800BFFF20094938
:1008B0000870012008490870000706491E390860C1
:1008C0001CBD000094310020B90400084031002014
:1008D0001000002022ED00E01400002070B5044656
:1008E0000E4615464FF400312046FFF776FE65614F
:1008F0000DB9266105E0AE4201D9284600E0304638
:10090000206170BD70B5044600F004FB0646204629
:10091000FFF7ECFE70B1002211462046FFF7F5FE0E
:100920000546287B0C490968097B884201DA00F0FA
:10093000CFF90DE02069401C10B12069401C2061F6
:10094000606928B1D4E90401884201D96069206155
:10095000304600F0D7F870BD0C000020F8B5044612
:100960000D4600F0D7FA0646206938B12069401ECE
:100970002061304600F0C6F80020F8BD4FF4003387
:1009800000220748009501682046FFF750FE3046D8
:1009900000F0B8F800F09CF901480068406CECE702
:1009A0000C00002030B50246104850434FF47A71D5
:1009B000B0FBF1F0401E4FF0E021486148170F21D5
:1009C000002807DA0B071D0E094B00F00F04241F47
:1009D0001D5503E00B071C0E064B1C5400BF0020E6
:1009E0004FF0E02188610720086130BD80A8120126
:1009F00018ED00E000E400E010B50446E06938B10D
:100A0000E16AA1F12800C169E2691144C16100BF36
:100A100004F128010448FFF701FF606920F0040099
:100A200060610020E06110BD343100202DE9F04705
:100A300004460D464FF00009207D00F00800002814
:100A40003DD1207D00F00200002838D1207D00F04B
:100A5000040010B12046FFF7CFFF207D00F0010019
:100A600010B1204600F0BCF91648466816E0A6F121
:100A70002807D6F80480F869A8420CD904F12802A6
:100A800031461048FFF7C0FEF869401BF861E56188
:100A90004FF0010905E0F8692D1A464609488642DB
:100AA000E5D100BFB9F1000F05D1E56104F12801DE
:100AB0000448FFF78FFE606940F004006061BDE804
:100AC000F08700003431002010B50446E06938B1E9
:100AD000E16AA1F12800C169E2691144C16100BF66
:100AE00004F128010648FFF799FE606920F0040030
:100AF00060610020E061204600F058F910BD000060
:100B00003431002000BF80F3108800BF7047000020
:100B100070B504466CB100F0FDF905462146054864
:100B20000068FFF783FF2846FFF7ECFF00F0D0F8DE
:100B300000BF70BD0C00002010B50248FFF75FFE3B
:100B400010BD00003431002070B50748FFF70CFDE0
:100B5000044604EB4401054A02EB8100FFF749FE1D
:100B60000546A5F1200070BD300000209441002012
:100B70002DE9F0470546884691469A46DDE9086723
:100B80006E60AF6039463046FFF79CFBB80806EB55
:100B900080044FF0FF31201F04460160201F0446EF
:100BA0000160201F04460160201F04460160201FD1
:100BB00004460160201F04460160201F04460160B6
:100BC000201F04460160201F04460160201F0446C8
:100BD0000160201F04460160201F04460160201FA1
:100BE00004460160201F04460160201F0446016086
:100BF000201F04460160201F04460160201F044698
:100C000001604FF08071201F04460160201F0446E0
:100C1000C0F800801421201F044601601221201F0B
:100C2000044601600321201F044601600221201FA9
:100C3000044601600121201F04460160201F044674
:100C4000C0F800901121201F044601601021201FD0
:100C5000044601600921201F044601600821201F6D
:100C6000044601600721201F044601600621201F61
:100C7000044601600521201F044601600421201F55
:100C8000044601602C600A20286185F80CA0012030
:100C900068610020A861E86105F12000FFF7E0FD30
:100CA00005F12800FFF7DCFD00202863686385F864
:100CB0003800E86328646864A864E864A01B2865B9
:100CC000284600F073F82846FFF74AFDBDE8F08794
:100CD00070B500F01FF905460E480078002803DDC6
:100CE0002846FFF70FFF70BDFFF72EFF04460A48A6
:100CF0000068844208D0094804600168064800681A
:100D0000FFF72FFD00F092F82846FFF7FBFE00BF2B
:100D1000E9E70000340000200C0000201000002053
:100D200010B500F0F7F8044606480078FF2804DA0A
:100D300004480078401C034908702046FFF7E2FE93
:100D400010BD00003400002010B500F0E3F80446A8
:100D500008480078002808DD06480078401EC0B228
:100D60000449087008B9FFF7B3FF2046FFF7CAFE31
:100D700010BD00003400002010B5002008490870A4
:100D80000848FFF71FFC002407E004EB4401064A73
:100D900002EB8100FFF733FD641C202CF5DB10BD56
:100DA00034000020300000209441002010B504469B
:100DB000217B01EB4101084A02EB810004F1200193
:100DC000FFF708FD217B0548FFF701FC606940F053
:100DD0000100606110BD000094410020300000203F
:100DE00010B50446207D00F00100D0B1217B01EB5D
:100DF00041010C4A02EB810004F12001FFF70EFDD6
:100E0000217B01EB4101074A02EB8100FFF7EEFC79
:100E100018B9217B0448FFF7A1FB606920F00100AD
:100E2000606110BD94410020300000204FF08050E0
:100E3000014908607047000004ED00E02DE9F04131
:100E400000F068F807462F488068D0B12D48456803
:100E5000A5F12804E06910B1E069401EE0610DE0F1
:100E60006E68E06B20B1012200212046FFF7BDFB38
:100E70002046FFF729FE3546A5F12804E069002841
:100E8000EED0214800680069401E1F4909680861CA
:100E900028BB1D490968097B01EB41011B4A02EB94
:100EA0008100FFF7A3FCD0B117490968097B01EB6A
:100EB0004101164A02EB8100FFF7BFFC12490968A5
:100EC000097B01EB4101114A02EB81000E490968DF
:100ED0002031FFF77FFC0A200B49096808610C48A4
:100EE0000068401C0A490860FFF75AFA3846FFF7C5
:100EF00009FE00F05DF8FFF732FCFFF7E9FEBDE800
:100F0000F0810000343100200C00002094410020CA
:100F10001800002000BFEFF3108188B272B670474E
:100F20000020014908607047180000202DE9F041B9
:100F300005466E681DE034467768206918B120695F
:100F4000401E2061A0B9022084F82000D4E90510D9
:100F50008847012084F82000E06810B1E068206133
:100F600006E021462846FFF759FC032084F82000BC
:100F70003E46AE42DFD1BDE8F081000010B5084822
:100F8000FFF73DFC0748FFF73AFC012211460648EF
:100F9000FFF7A4FC002211460448FFF79FFC10BD98
:100FA00014430020204300202C4300204443002011
:100FB00010B5FFF7AFFF04460448FFF7B7FF204620
:100FC000FFF7A0FD0248FFF79DFC10BD1443002071
:100FD0004443002000BF00210648FFF7BFFC00216A
:100FE0000548FFF7BBFC0548FFF7A0FF0248FFF7E5
:100FF00089FCF0E7444300202C43002020430020DC
:101000001CB54FF48050054901230022CDE90010A2
:1010100003490448FFF7ACFD1CBD0000B0430020AD
:10102000D50F00085C43002021F00042A2F160527D
:10103000B2F5801F01F0004328BFD2F17F6C0BD9BD
:101040005FEA001C43EAC20242EB507018BF7047CF
:1010500028BF20F001007047B2F5801FBCBF1846C2
:1010600070474FEA410C1CF5001F02D2084600F001
:101070001ABC70B500F0C8FA00000089FFF7F6BF8F
:101080004FF00040A0F580007047000010B591EAD5
:10109000030F48BF83F0004300F11E83841A71EBF5
:1010A000030C05D2121943EB0C03001B61EB0C017E
:1010B000DFF824E14FEA1154A4EB135C1EEA430F5E
:1010C00018BF9EEA445F73D023EA0E03DCF1200EC2
:1010D00021EA045143F4801332D322FA0CFE10EBC0
:1010E0000E0023FA0CFE41EB0E01CCF1200E03FAA8
:1010F0000EFE10EB0E0051F10001B1F5801FCCF196
:10110000200E32D201EB045112FA0EF2BDE810406B
:1011100058BF7047401C38BF5FEA420218BF704793
:10112000002814BF20F0010041F100014FEA410303
:1011300013F5001F38BF7047A1F1C04100F0B2BAEB
:10114000012A43EB0302ACF1200CDCF11F0E32BF8D
:101150004FF0000E23FA0CF310EB030041EB0451A7
:10116000B4EB115FD0D0A1EB045101F58011490817
:101170005FEA300001EB04510ED350F1000038BF9C
:1011800012FA0EFE08D1BDE81040C9E7401C38BF76
:101190005FEA4202CAD1C3E7BDE810404FEA41030B
:1011A00013F5001F38BF7047A1F1C04100F07ABAB3
:1011B0009EEA445F08D011EA5E0FBDE8104004BF0C
:1011C00001F0004100207047BDE8104070B500F00C
:1011D0001BFA00BF64FBBE3E0000E0FF2DE9C041EA
:1011E00030B4DFF8A0C23CEA111418BF3CEA131473
:1011F00000F0EC8081EA03051CEA111444EAD5747E
:1012000018BF1CEA131500F0C780A4EB05044FF0CB
:10121000004545EAC12145EAC32341EA505143EA6A
:10122000525304F17F74994204F500344FEAC02010
:101230004FEAC22208BF904200F09C804FEA13653B
:101240000FF24016765D4FEA134506FB05F7C7F12E
:10125000807706FB07F74FEAD737A7FB036876428C
:10126000C8F58038A7FB06CE38BFA8F1010807FBF8
:1012700008E64FF0000EA6FB028CE6FB03CEDCF185
:10128000000CCEF1004E38BFAEF1010EA6FB0C589B
:101290004FF000074FF00005E6FB0E87A1FB08C6E4
:1012A000A0FB07CE16EB0E0645F10005E1FB076536
:1012B00015F1E04E7EBFA4F580345FEA46066D412D
:1012C00016F1800745F100054FEA17274FEA066639
:1012D00047EA0567A6F1DE46B6F1805F4FEA1525BD
:1012E0001FD9384624F0010C05EBC471BCF1FE6F28
:1012F00001EB0C1102D8F0BCBDE8008124425CBFB8
:1013000001F5801E9EEAC47F02D4F0BCBDE80081D6
:10131000244238D4F0BCA1F1C041BDE8004100F046
:10132000C1B94FEAD22242EA43524FEAD323A7FB84
:1013300002864FEAD02040EA415007FB03661EEACE
:101340000E0F4FEAD12105FB026658BFA6EB0056EF
:10135000B6EB00564FEA520E4EEAC37E18EB0E0E65
:1013600056EB530EBDD518EB02085E417F1C55F1BC
:101370000005B6E74FF480154FF000074FF0000668
:101380004FF00008ADE7F0BC4FF0000001F1C041A4
:1013900001F00041BDE8008111EA0C1F0CEA1315B1
:1013A00000D00CE013EA0C1F00F025804FF0000085
:1013B000F0BC81EA030101F00041BDE80081F0BC0E
:1013C000BDE8004181EA030100F06CB9F0BCBDE862
:1013D000004170B500F018F9097EFC3E00F007B836
:1013E00081EA03014FF0000001F00041704781EAFB
:1013F000030100F057B9F0BCBDE800414FF0000018
:1014000021497047FFFDFBF9F7F5F4F2F0EEEDEB43
:10141000E9E8E6E4E3E1E0DEDDDBDAD8D7D5D4D3F2
:10142000D1D0CFCDCCCBCAC8C7C6C5C4C2C1C0BF3E
:10143000BEBDBCBBBAB9B8B7B6B5B4B3B2B1B0AF44
:10144000AEADACABAAA9A8A8A7A6A5A4A3A3A2A128
:10145000A09F9F9E9D9C9C9B9A99999897979695E3
:1014600095949393929191908F8F8E8E8D8C8C8B7F
:101470008B8A898988888787868585848483838207
:10148000828181800000FF070000F87FB0FA80F3BE
:1014900010FA03F10AD0C3F11D0303F580634FEA8C
:1014A00041504FEA035202EBD12170474FF0000048
:1014B00070470000DFF848C170B51CEA111E1EBF5E
:1014C0001CEA13159EEA0C0F95EA0C0F00F06F80D2
:1014D00081EA030423EA4C134EEAD47E21EA4C113C
:1014E00041F4801143F48013AE44A1FB024CA0FBF5
:1014F0000365AEF17F7E361955EB0C05A1FB034C5D
:101500004CF10003A0FB021C16EB0C06654153F1E5
:101510000003094218BF46F0010613F4007F0BD107
:101520004FEA03314FEA0530340341EA155140EAEE
:1015300016506FF003020AE04FEAC3214FEAC520BC
:10154000F40241EA555140EA56506FF0020202EBB4
:101550002E4201EB025585EACE710AD05FEA440CB7
:1015600018BF24F0004450F1000041F1000120EACE
:10157000D47040F2FE7C624500D270BDA84214BF18
:101580004FF080444FF04044002E08BF0024BEF1CD
:10159000806FA8BFA1F1C041BDE8704080F2828099
:1015A0004FF0000001F1C04101F0004170479EEA98
:1015B0000C0F0CEA131518BF95EA0C0F06D04FF06C
:1015C000000081EA030E0EF0004170BD00F01CF82F
:1015D0008900013E00F007B800F009B84FEA430C5B
:1015E0005FEA5C5C08D081EA030100F05BB84FEA77
:1015F000410C5FEA5C5CF6D14FF000000149704796
:101600000000FF070000F87F0EF1020E2EF0030E1F
:101610005EF8046B364205D4012A43EB030515F549
:10162000001F12D8012841EB010C1CF5001F0CD83B
:101630000ED14FEAD17C15F5001F0CEB4C0C0CF1D0
:10164000020C08BF4CEBD37C04E04FF0080C01E027
:101650004FEAD37C0CEB4C0526FA05F606F007069C
:10166000B6F1040C06D20EEB860CBDE870404CF0CF
:10167000010C6047DFE80CF0090B02024FF000415B
:101680004FF00000A1F5002170BD19461046012859
:1016900051EB010418BFD4F5001484BF002001F001
:1016A000004170BD0808A0F500114FEA31017047F4
:1016B00091EA030F10B581F000413FF5EFAC83F0E4
:1016C000004300F009B8000010B591EA030F48BFCD
:1016D00083F000433FF5E2AC841A71EB030C07D2B0
:1016E00012198CF0004C43EB0C03001B61EB0C0156
:1016F000DFF8A4E14FEA1154A4EB135C1EEA430F98
:1017000018BF9EEA445F00F0B08023EA6E035242A5
:1017100021EA0451C3EB6E0338BF5B1EDCF1200EDF
:1017200025D322FA0CFE10EB0E0043FA0CFE41EB1F
:101730000E01CCF1200E03FA0EFE10EB0E0051F15B
:101740000001CCF1200E29D412FA0EF201EB045163
:10175000BDE8104058BF7047401C1CBFB2F1004F9D
:10176000704700280CBF491C20F00100704712EBA5
:10177000020E43EB030218BF4FF0010E4EEA420285
:10178000ACF1200CDCF11E0E54D943FA0CFE10EB28
:101790000E0051F1FF31CCF11E0ED5D50EF1010E28
:1017A00012FA0EFE404141EB010101EB445C5FEA9D
:1017B0005C5C10D910EBDE7001EB045138BFBEF158
:1017C000004FBDE8104018BF704700280CBF491CEF
:1017D00020F00100704730D24FEAD42C11F50011EF
:1017E00024F400641BD0B1FA81F20B3AA41AA41EAF
:1017F000D2F12003914030FA03F31943904001EBFA
:10180000CC71002C01EB0451BDE81040A8BF70471B
:1018100001F1C0414FF0000001F000417047B0FA03
:1018200080F310FA03F100D110BDE41A173C48050B
:10183000C90AE4E701EB045110BD491001EB045162
:10184000BDE810404FEA300002E04FF00001704761
:101850004A0008BF0042F8D0B2F5001F28BF704709
:1018600001F000414FF0000070479EEA445F07D04E
:1018700011EA5E0FBDE8104004BF00210020704750
:10188000BDE8104070B5FFF7BFFE00BF40DFF63E79
:1018900083F00041104670470000E0FF4FF04070B9
:1018A000E1EE100A7047FF2141EAD050C0057047B1
:1018B000FF0001000200010003000100020001001E
:1018C0000400010002000100030001000200010009
:1018D00005000100020001000300010002000100F8
:1018E00004000100020001000300010002000100E9
:1018F00006000100020001000300010002000100D7
:1019000004000100020001000300010002000100C8
:1019100005000100020001000300010002000100B7
:1019200004000100020001000300010002000100A8
:101930000700010002000100030001000200010095
:101940000400010002000100030001000200010088
:101950000500010002000100030001000200010077
:101960000400010002000100030001000200010068
:101970000600010002000100030001000200010056
:101980000400010002000100030001000200010048
:101990000500010002000100030001000200010037
:1019A0000400010002000100030001000200010028
:1019B000D01900080000002038000000E8010008ED
:1019C000081A000838000020D85900000402000856
:1019D0000000000000000000000000000000000007
:1019E00000000000000000000000000000000000F7
:1019F00000000000000000000000000000000000E7
:081A00000000000000000000DE
:04000005080001AD41
:00000001FF
